{
  "_format": "hh-sol-artifact-1",
  "contractName": "Voting",
  "sourceName": "contracts/Voting.sol",
  "abi": [
    {
      "inputs": [],
      "stateMutability": "nonpayable",
      "type": "constructor"
    },
    {
      "inputs": [
        {
          "internalType": "string",
          "name": "_name",
          "type": "string"
        }
      ],
      "name": "addCandidate",
      "outputs": [],
      "stateMutability": "nonpayable",
      "type": "function"
    },
    {
      "inputs": [
        {
          "internalType": "uint256",
          "name": "",
          "type": "uint256"
        }
      ],
      "name": "condidates",
      "outputs": [
        {
          "internalType": "string",
          "name": "name",
          "type": "string"
        },
        {
          "internalType": "uint256",
          "name": "voteCount",
          "type": "uint256"
        }
      ],
      "stateMutability": "view",
      "type": "function"
    },
    {
      "inputs": [
        {
          "internalType": "address",
          "name": "",
          "type": "address"
        }
      ],
      "name": "hasVoted",
      "outputs": [
        {
          "internalType": "bool",
          "name": "",
          "type": "bool"
        }
      ],
      "stateMutability": "view",
      "type": "function"
    },
    {
      "inputs": [],
      "name": "numberOfCondidates",
      "outputs": [
        {
          "internalType": "uint256",
          "name": "",
          "type": "uint256"
        }
      ],
      "stateMutability": "view",
      "type": "function"
    },
    {
      "inputs": [],
      "name": "owner",
      "outputs": [
        {
          "internalType": "address",
          "name": "",
          "type": "address"
        }
      ],
      "stateMutability": "view",
      "type": "function"
    },
    {
      "inputs": [
        {
          "internalType": "uint256",
          "name": "_condidateId",
          "type": "uint256"
        }
      ],
      "name": "vote",
      "outputs": [],
      "stateMutability": "nonpayable",
      "type": "function"
    }
  ],
  "bytecode": "0x6080604052348015600f57600080fd5b5033600360006101000a81548173ffffffffffffffffffffffffffffffffffffffff021916908373ffffffffffffffffffffffffffffffffffffffff160217905550610d41806100606000396000f3fe608060405234801561001057600080fd5b50600436106100625760003560e01c80630121b93f1461006757806309eef43e14610083578063462e91ec146100b357806378f8c4ed146100cf57806380c5bf8b146101005780638da5cb5b1461011e575b600080fd5b610081600480360381019061007c91906104cc565b61013c565b005b61009d60048036038101906100989190610557565b610292565b6040516100aa919061059f565b60405180910390f35b6100cd60048036038101906100c89190610700565b6102b2565b005b6100e960048036038101906100e491906104cc565b6103aa565b6040516100f79291906107d7565b60405180910390f35b610108610456565b6040516101159190610807565b60405180910390f35b61012661045c565b6040516101339190610831565b60405180910390f35b600160003373ffffffffffffffffffffffffffffffffffffffff1673ffffffffffffffffffffffffffffffffffffffff16815260200190815260200160002060009054906101000a900460ff16156101c9576040517f08c379a00000000000000000000000000000000000000000000000000000000081526004016101c090610898565b60405180910390fd5b600254811061020d576040517f08c379a000000000000000000000000000000000000000000000000000000000815260040161020490610904565b60405180910390fd5b60018060003373ffffffffffffffffffffffffffffffffffffffff1673ffffffffffffffffffffffffffffffffffffffff16815260200190815260200160002060006101000a81548160ff021916908315150217905550600080828152602001908152602001600020600101600081548092919061028a90610953565b919050555050565b60016020528060005260406000206000915054906101000a900460ff1681565b600360009054906101000a900473ffffffffffffffffffffffffffffffffffffffff1673ffffffffffffffffffffffffffffffffffffffff163373ffffffffffffffffffffffffffffffffffffffff1614610342576040517f08c379a000000000000000000000000000000000000000000000000000000000815260040161033990610a0d565b60405180910390fd5b60405180604001604052808281526020016000815250600080600254815260200190815260200160002060008201518160000190816103819190610c39565b5060208201518160010155905050600260008154809291906103a290610953565b919050555050565b60006020528060005260406000206000915090508060000180546103cd90610a5c565b80601f01602080910402602001604051908101604052809291908181526020018280546103f990610a5c565b80156104465780601f1061041b57610100808354040283529160200191610446565b820191906000526020600020905b81548152906001019060200180831161042957829003601f168201915b5050505050908060010154905082565b60025481565b600360009054906101000a900473ffffffffffffffffffffffffffffffffffffffff1681565b6000604051905090565b600080fd5b600080fd5b6000819050919050565b6104a981610496565b81146104b457600080fd5b50565b6000813590506104c6816104a0565b92915050565b6000602082840312156104e2576104e161048c565b5b60006104f0848285016104b7565b91505092915050565b600073ffffffffffffffffffffffffffffffffffffffff82169050919050565b6000610524826104f9565b9050919050565b61053481610519565b811461053f57600080fd5b50565b6000813590506105518161052b565b92915050565b60006020828403121561056d5761056c61048c565b5b600061057b84828501610542565b91505092915050565b60008115159050919050565b61059981610584565b82525050565b60006020820190506105b46000830184610590565b92915050565b600080fd5b600080fd5b6000601f19601f8301169050919050565b7f4e487b7100000000000000000000000000000000000000000000000000000000600052604160045260246000fd5b61060d826105c4565b810181811067ffffffffffffffff8211171561062c5761062b6105d5565b5b80604052505050565b600061063f610482565b905061064b8282610604565b919050565b600067ffffffffffffffff82111561066b5761066a6105d5565b5b610674826105c4565b9050602081019050919050565b82818337600083830152505050565b60006106a361069e84610650565b610635565b9050828152602081018484840111156106bf576106be6105bf565b5b6106ca848285610681565b509392505050565b600082601f8301126106e7576106e66105ba565b5b81356106f7848260208601610690565b91505092915050565b6000602082840312156107165761071561048c565b5b600082013567ffffffffffffffff81111561073457610733610491565b5b610740848285016106d2565b91505092915050565b600081519050919050565b600082825260208201905092915050565b60005b83811015610783578082015181840152602081019050610768565b60008484015250505050565b600061079a82610749565b6107a48185610754565b93506107b4818560208601610765565b6107bd816105c4565b840191505092915050565b6107d181610496565b82525050565b600060408201905081810360008301526107f1818561078f565b905061080060208301846107c8565b9392505050565b600060208201905061081c60008301846107c8565b92915050565b61082b81610519565b82525050565b60006020820190506108466000830184610822565b92915050565b7f596f75206861766520616c726561647920766f74656400000000000000000000600082015250565b6000610882601683610754565b915061088d8261084c565b602082019050919050565b600060208201905081810360008301526108b181610875565b9050919050565b7f496e76616c696420636f6e646964617465206964000000000000000000000000600082015250565b60006108ee601483610754565b91506108f9826108b8565b602082019050919050565b6000602082019050818103600083015261091d816108e1565b9050919050565b7f4e487b7100000000000000000000000000000000000000000000000000000000600052601160045260246000fd5b600061095e82610496565b91507fffffffffffffffffffffffffffffffffffffffffffffffffffffffffffffffff82036109905761098f610924565b5b600182019050919050565b7f4f6e6c7920746865206f776e65722063616e20706572666f726d20746869732060008201527f616374696f6e0000000000000000000000000000000000000000000000000000602082015250565b60006109f7602683610754565b9150610a028261099b565b604082019050919050565b60006020820190508181036000830152610a26816109ea565b9050919050565b7f4e487b7100000000000000000000000000000000000000000000000000000000600052602260045260246000fd5b60006002820490506001821680610a7457607f821691505b602082108103610a8757610a86610a2d565b5b50919050565b60008190508160005260206000209050919050565b60006020601f8301049050919050565b600082821b905092915050565b600060088302610aef7fffffffffffffffffffffffffffffffffffffffffffffffffffffffffffffffff82610ab2565b610af98683610ab2565b95508019841693508086168417925050509392505050565b6000819050919050565b6000610b36610b31610b2c84610496565b610b11565b610496565b9050919050565b6000819050919050565b610b5083610b1b565b610b64610b5c82610b3d565b848454610abf565b825550505050565b600090565b610b79610b6c565b610b84818484610b47565b505050565b5b81811015610ba857610b9d600082610b71565b600181019050610b8a565b5050565b601f821115610bed57610bbe81610a8d565b610bc784610aa2565b81016020851015610bd6578190505b610bea610be285610aa2565b830182610b89565b50505b505050565b600082821c905092915050565b6000610c1060001984600802610bf2565b1980831691505092915050565b6000610c298383610bff565b9150826002028217905092915050565b610c4282610749565b67ffffffffffffffff811115610c5b57610c5a6105d5565b5b610c658254610a5c565b610c70828285610bac565b600060209050601f831160018114610ca35760008415610c91578287015190505b610c9b8582610c1d565b865550610d03565b601f198416610cb186610a8d565b60005b82811015610cd957848901518255600182019150602085019450602081019050610cb4565b86831015610cf65784890151610cf2601f891682610bff565b8355505b6001600288020188555050505b50505050505056fea2646970667358221220cb172746b97efb4bb800c4446bd24e8edd8655d4bc40fd5c9edf79aa37dc06ca64736f6c634300081c0033",
  "linkReferences": {},
  "deployedLinkReferences": {}
}